:020000040800F2
:1000000000050020BD0500089101000893010008CB
:10001000970100089B0100089F01000800000000F4
:10002000000000000000000000000000A301000824
:10003000A501000800000000A7010008A9010008B0
:10004000D7050008D7050008D7050008D705000820
:10005000D7050008D7050008D7050008D705000810
:10006000D7050008D7050008D7050008D705000800
:10007000D7050008D7050008D7050008D7050008F0
:10008000D7050008D7050008D7050008D7050008E0
:10009000D7050008D7050008D7050008D7050008D0
:1000A000D7050008D7050008D7050008D7050008C0
:1000B000D7050008D7050008D7050008D7050008B0
:1000C000D7050008D7050008D7050008D7050008A0
:1000D000D705000831050008D7050008D705000836
:1000E000D7050008D7050008D7050008D705000880
:1000F000D7050008D7050008D7050008D705000870
:10010000D7050008D7050008D7050008D70500085F
:10011000D7050008D7050008D7050008D70500084F
:10012000D7050008D7050008D7050008D70500083F
:10013000DFF80CD001F082FA0048004745010008C2
:100140000005002000F020F900F092F901F0E0F93C
:100150001BE001F04FF80D4801F09BF901F026F982
:10016000052000F070F901F0A9F8084801F091F9B4
:1001700001F01CF9052000F066F901F03BF801F0F0
:1001800040F901F013F900BFFEE7E2E77E16000830
:10019000704700BFFEE700BFFEE700BFFEE700BFFD
:1001A000FEE7704770477047704700000CB50020AD
:1001B000019000906B48006840F480306949086005
:1001C00000BF6848006800F4003000900198401CAF
:1001D0000190009818B90198B0F5A06FF1D161486D
:1001E000006810F4003F02D00120009001E00020E0
:1001F00000900098012842D15B48006840F0100050
:10020000594908600846006820F003000860084665
:10021000006840F002000860524840685149486058
:100220000846406848600846406840F4806048607E
:100230000846406820F47C1048600846406840F456
:10024000E81048600846006840F08070086000BF11
:100250004448006810F0007FFAD04248406820F01F
:100260000300404948600846406840F0020048608A
:1002700000BF3C48406800F00C000828F9D10CBDD4
:1002800010B5FFF793FF10BD10B53648006840F079
:100290000100344908600846406834490840314943
:1002A000486008460068324908402E490860084600
:1002B000006820F4802008600846406820F4FE00B2
:1002C00048604FF41F008860FFF7DAFF4FF00060CE
:1002D0002849086010BD10B5002100200022214BE4
:1002E0005B6803F00C0121B1042906D0082928D14C
:1002F00007E0214B214C236027E01F4B1F4C23605C
:1003000023E0184B5B6803F47010164B5B6803F432
:100310008032022303EB904022B9194B4343174C20
:1003200023600DE00F4B5B6813F4003F04D0144BC7
:100330004343124C236003E00F4B43430F4C2360B5
:1003400003E00D4B0D4C236000BF00BF054B5B6805
:10035000C3F303130B4CE15C084B1B68CB40074C09
:10036000236010BD00100240002002400000FFF892
:10037000FFFFF6FE08ED00E000127A00000000200A
:1003800000093D000400002010B56FF0040000F0EB
:1003900077F9334800683349B0FBF1F0324908700F
:1003A0000846007800EB4001C1EBC0104FF6FF712A
:1003B00001EAC0002D49088010BD01462A4A127882
:1003C0004A434FF0E0235A6100229A611A461269AB
:1003D00042F001021A6100BF4FF0E022106910F0F4
:1003E000010F02D010F4803FF6D04FF0E0221269E6
:1003F00022F001024FF0E0231A6100229A61704757
:1004000001461A4A12884A434FF0E0235A610022FB
:100410009A611A46126942F001021A6100BF4FF058
:10042000E022106910F0010F02D010F4803FF6D0E6
:100430004FF0E022126922F001024FF0E0231A612E
:1004400000229A61704730B50446002505E04FF45C
:100450007A70FFF7D5FF681C85B2A542F7DB30BD87
:100460000000002000127A00140000201600002076
:1004700010B54FF4A06000F0B3F810BD014600BF06
:10048000704700BF494A128812F0400FFAD0C2B23A
:10049000464B1B1D1A80704710B586B004460121DB
:1004A00044F2050000F020FC4FF40070ADF8140099
:1004B00003208DF8160018208DF8170005A93C4878
:1004C00000F05CF94FF48060ADF8140004208DF862
:1004D000170005A9364800F051F925208DF80000D5
:1004E00003208DF801008DF8020001208DF8030033
:1004F000684600F07AF801940020ADF80800ADF8E5
:100500000A00ADF80C00ADF810000C20ADF80E009C
:1005100001A9264800F093FC012240F2255123480E
:1005200000F025FD0121214800F015FD06B010BDA9
:1005300010B540F225511D4800F0FEFD10B31B48D8
:1005400000F07AFDC4B21B48008810F4004F2BD194
:100550001848008810F4804F0CD00A2C03D00020DB
:100560001449088020E01348008840F400401149F5
:10057000088019E00D2C06D10E48008840F4804018
:100580000C49088010E00B480088C0F30D000A49B0
:100590000C5408480088401C06490880084600881A
:1005A000C72801DD0020088010BD00000038014090
:1005B0000008014018000020340000200648804751
:1005C00006480047FEE7FEE7FEE7FEE7FEE7FEE738
:1005D000FEE7FEE7FEE7FEE78902000831010008BA
:1005E00031490143314A1160704770B50021002341
:1005F0000F22C4780CB32D4C246804F4E064C4F5D5
:10060000E064210AC1F10403CA40447804FA03F10A
:100610008478144021430901254C0678A1550478BB
:1006200004F01F050124AC4005786D114FF0E02661
:1006300006EB8505C5F8004109E0047804F01F05C4
:100640000124AC401B4D0678761145F8264070BD5C
:10065000194A0A400243154B1B1F1A60704739B1F3
:10066000124A121D12680243104B1B1D1A6006E04D
:100670000E4A121D126882430C4B1B1D1A607047F4
:10068000042808D14FF0E021096941F004014FF03E
:10069000E022116107E04FF0E021096921F0040137
:1006A0004FF0E022116170470000FA050CED00E008
:1006B00000E400E080E100E080FFFF1F10B5044689
:1006C000CA48844208D10121042000F027FB002100
:1006D000042000F023FB46E0C548844208D10121F4
:1006E000082000F01BFB0021082000F017FB3AE077
:1006F000C048844208D10121102000F00FFB0021E6
:10070000102000F00BFB2EE0BB48844208D10121F1
:10071000202000F003FB0021202000F0FFFA22E05F
:10072000B648844208D10121402000F0F7FA0021A8
:10073000402000F0F3FA16E0B148844208D10121CC
:10074000802000F0EBFA0021802000F0E7FA0AE0B8
:10075000AC48844207D10121801500F0DFFA002166
:10076000A01500F0DBFA10BD10B50121084600F01D
:10077000D5FA0021012000F0D1FA10BD2DE9F04199
:10078000024600250026002000230024002791F8BF
:1007900003C00CF00F0591F803C01CF0100F03D03C
:1007A00091F802C04CEA050591F800C0BCF1000FB9
:1007B00031D0146800202BE04FF0010C0CFA00F34C
:1007C000B1F800C00CEA03069E4220D183004FF02E
:1007D0000F0C0CFA03F7BC4305FA03FC4CEA0404C3
:1007E00091F803C0BCF1280F06D14FF0010C0CFAB0
:1007F00000FCC2F814C00AE091F803C0BCF1480F35
:1008000005D14FF0010C0CFA00FCC2F810C0401CDE
:100810000828D1D31460B1F800C0BCF1FF0F34DD5B
:10082000546800202EE000F1080C4FF0010808FA8F
:100830000CF3B1F800C00CEA03069E4221D18300FC
:100840004FF00F0C0CFA03F7BC4305FA03FC4CEA1B
:10085000040491F803C0BCF1280F05D100F1080C85
:1008600008FA0CF8C2F8148091F803C0BCF1480FE4
:1008700007D100F1080C4FF0010808FA0CF8C2F893
:100880001080401C0828CED35460BDE8F0814FF69C
:10089000FF710180022181700421C17070470246FE
:1008A000002093680B4201D0012000E00020704737
:1008B0000146886880B2704702460020D3680B4228
:1008C00001D0012000E0002070470146C86880B2D6
:1008D000704701617047416170470AB1016100E0F2
:1008E00041617047C16070474FF480320A438261B2
:1008F0008161826182698269704702460020424BB1
:1009000018684FF68073184040EA021008433E4BC7
:10091000186070473D49C8617047F0B50A4600232A
:1009200000240021002500F00046B6F1004F02D15E
:10093000354EF16901E0344E7168C0F3034583B26E
:1009400000F44016B6F5401F08D121F070612E4E1C
:10095000766826F070662C4F7E6012E000F48016F8
:10096000B6F5801F06D1032606FA05F4A14341F02F
:10097000706106E0460D360103FA06F6B14341F018
:10098000706122B1460D360103FA06F6314300F0DC
:100990000046B6F1004F02D11B4EF16101E01A4E44
:1009A0007160F0BD30B500228B071C0F0F2303FAD6
:1009B00004F2154B08338C1053F824309343124C37
:1009C00008348D1044F8253023468C1053F8243019
:1009D0008C07240F00FA04F423430B4C08348D10C9
:1009E00044F8253030BD0A490860704700080140CE
:1009F000000C0140001001400014014000180140AB
:100A0000001C014000200140000001400000204285
:100A1000DC002042DD48006840F00100DB4908604E
:100A200008464068DA490840D849486008460068E6
:100A3000D8490840D54908600846006820F480205D
:100A400008600846406820F4FE0048604FF41F002C
:100A500088607047CD49096821F48031CB4A116024
:100A60001146096821F480211160B0F5803F03D060
:100A7000B0F5802F0ED106E0C449096841F48031F9
:100A8000C24A116007E0C149096841F4A021BF4A88
:100A9000116000E000BF00BF704710B501460022A2
:100AA000002300204A11012A02D1B84C236806E035
:100AB000022A02D1B54C236A01E0B44C636A01F00A
:100AC0001F02012494401C4201D0012000E00020BC
:100AD00010BD38B5002000900024002500BF312053
:100AE000FFF7DBFF05460098401C00900098B0F52A
:100AF000A06F01D0002DF2D03120FFF7CEFF08B15A
:100B0000012400E00024204638BD014600209F4A11
:100B1000106820F0F80040EAC100106070479E495C
:100B20000860704702460020984B586820F47C10FB
:100B300042EA01031843954B58607047964908668E
:100B4000704701460020914A506820F00300084396
:100B5000506070478D48406800F00C0070470146B7
:100B600000208A4A506820F0F00008435060704727
:100B700001460020854A506820F4E0600843506038
:100B8000704701460020814A506820F4605040EAD6
:100B9000C1005060704729B17C4A527A02437B4BB6
:100BA0005A7204E0794A527A8243784B5A727047FB
:100BB0007A490860704701460020744A506820F462
:100BC00040400843506070470021754A11706F4AD9
:100BD00082F82010012802D0042808D103E0012166
:100BE0006F4A117004E005216D4A117000E000BFEA
:100BF00000BF70476B49086070476449096A014348
:100C0000624A11627047674944390860704730B5DD
:100C100000210022002400235C4D6D6805F00C01CA
:100C200021B1042905D0082923D105E05E4D0560D6
:100C300022E05D4D05601FE0544D6D6805F47012B3
:100C4000524D6D6805F48034022505EB92421CB9C3
:100C5000564D554305600BE04C4D6D6815F4003F53
:100C600003D0524D5543056002E04F4D554305609A
:100C700002E04D4D056000BF00BF444D6D6805F0BA
:100C8000F00109094A4D6B5C0568DD4045603F4D48
:100C90006D6805F4E061090A454D6B5C4568DD400F
:100CA00085603A4D6D6805F46051C90A404D6B5C32
:100CB0004568DD40C560354D6D6805F44041890BE0
:100CC0003C4D6B5CC568B5FBF3F5056130BD29B1E2
:100CD0002E4A526902432D4B5A6104E02B4A526955
:100CE00082432A4B5A61704729B1284A92690243CC
:100CF000264B9A6104E0254A92698243234B9A610C
:100D0000704729B1214AD2690243204BDA6104E0DD
:100D10001E4AD26982431D4BDA61704729B11B4AD2
:100D2000D2680243194BDA6004E0184AD268824361
:100D3000164BDA60704729B1144A12690243134B0B
:100D40001A6104E0114A12698243104B1A6170471C
:100D500014494039086070470F49C86470470B490F
:100D6000C87170470948406A40F08070074948627E
:100D7000704701460020054A92680A4201D00120CE
:100D800000E000207047014988727047001002405F
:100D90000000FFF8FFFFF6FE00004242D80042428A
:100DA000201002408004424200127A0000093D00F7
:100DB000200000203000002010B50446FB4884428B
:100DC00009D101218803FFF7A9FF00214FF48040DA
:100DD000FFF7A4FF32E0F648844209D1012148041C
:100DE000FFF7A9FF00214FF40030FFF7A4FF25E033
:100DF000F048844209D101218804FFF79CFF0021BB
:100E00004FF48020FFF797FF18E0EB48844209D1A8
:100E10000121C804FFF78FFF00214FF40020FFF7E6
:100E20008AFF0BE0E548844208D101210805FFF75D
:100E300082FF00214FF48010FFF77DFF10BD2DE9E8
:100E4000F04786B005460E460024A24600BFA146E4
:100E50000027B08900B100BF2F462C8A4CF6FF70E6
:100E60000440F08804432C82AC894EF6F310044011
:100E7000B08831890843718908430443AC81AC8A46
:100E80004FF6FF400440B0890443AC8201A8FFF74D
:100E9000BEFEC648874202D1DDF810A001E0DDF8B1
:100EA0000CA0A88910F4004F08D00AEBCA0000EB90
:100EB0000A1031684900B0FBF1F807E00AEBCA00FC
:100EC00000EB0A1031688900B0FBF1F86420B8FB30
:100ED000F0F004012009642101FB1089A88910F4B5
:100EE000004F08D0322000EBC900B0FBF1F000F059
:100EF0000700044308E0322000EB09106421B0FB36
:100F0000F1F000F00F0004432C8106B0BDE8F0873B
:100F10004FF41651016000218180C18001810C21B4
:100F2000418100218181704710B502460020108A5E
:100F30004FF2FF0318400B884C8823438C882343CF
:100F4000CC8823431843108210BD002101804180CA
:100F50008180C180704721B1828942F40052828130
:100F600004E082894DF6FF731A4082817047F0B524
:100F700003460024002600250020A1F510676A3FE3
:100F800000D100BF1846C1F3421401F01F0601272B
:100F900007FA06F5012C01D10C3004E0022C01D136
:100FA000103000E014301AB107682F43076002E0E8
:100FB0000768AF430760F0BD1AB1838A0B43838291
:100FC00002E0838A8B4383827047028A4FF6F07374
:100FD0001A400282028A0A430282704782894FF2D3
:100FE000FF731A40828182890A438281704721B14E
:100FF000828942F00202828104E082894FF6FD7309
:101000001A4082817047028A4FF6DF731A400282CB
:10101000028A0A430282704721B1028A42F4804266
:10102000028204E0028A4BF6FF731A400282704784
:10103000C1F308028280704701468888C0F3080027
:101040007047818941F0010181817047028BD2B2E2
:101050000283028B42EA012202837047028B02F470
:101060007F420283028B0A430283704721B1828A46
:1010700042F02002828204E0828A4FF6DF731A4037
:101080008282704721B1828A42F01002828204E09B
:10109000828A4FF6EF731A408282704721B1828AAA
:1010A00042F00802828204E0828A4FF6F7731A4007
:1010B0008282704721B1828942F40042828103E03A
:1010C0008289C2F30E028281704721B1828A42F482
:1010D0000062828204E0828A4FF2FF731A408282A9
:1010E0007047828A4FF6FB731A408282828A0A43D3
:1010F0008282704721B1828A42F00202828204E039
:10110000828A4FF6FD731A408282704702460020A1
:10111000B1F5007F00D100BF13880B4201D0012040
:1011200000E00020704701F40072B2F5007F00D1AA
:1011300000BFCA430280704770B5024600240023F6
:1011400000250020A1F510666A3E00D100BFC1F362
:10115000421501F01F03012606FA03F3012D02D107
:101160009689334006E0022D02D1168A334001E011
:10117000968A33400C12012606FA04F4168834408D
:1011800013B10CB1012000E0002070BD10B50022A9
:101190000023A1F510646A3C00D100BF0A120124AB
:1011A0009440A3B2DC43048010BD0000003801402D
:1011B0000044004000480040004C00400050004007
:1011C00006E042F6E06100BF0A00A1F10101FBD197
:1011D0000200A0F10100F4D1704710B507E04FF410
:1011E0000051CA48FFF75BFB012800D100E0F6E799
:1011F00000BF10BD10B51420FFF7E2FF4FF480418F
:10120000C248FFF768FB3220FFF7DAFF4FF4804156
:10121000BE48FFF75EFB3220FFF7D2FFFFF7DDFF8E
:101220004D2000F0DDF9782000F0EFF9002000F00B
:10123000D7F90F2000F0E9F9292000F0E6F906209F
:1012400000F0CEF90D2000F0E0F9122000F0DDF9F9
:10125000302000F0DAF9202000F0D7F9192000F052
:10126000D4F92A2000F0D1F9222000F0CEF9502044
:1012700000F0B6F9372000F0C8F9612000F0B0F9AD
:10128000002000F0C2F9C82000F0BFF9002000F0F3
:10129000BCF9C82000F0B9F9E92000F0A1F901205B
:1012A00000F0B3F9302000F09BF9082000F0ADF910
:1012B000042000F095F9FFF790FF10BD10B5142041
:1012C000FFF77EFF4FF480419048FFF704FB322088
:1012D000FFF776FF4FF480418C48FFF7FAFA32208F
:1012E000FFF76EFFFFF779FF4D2000F079F97820C6
:1012F00000F08BF9002000F073F90F2000F085F961
:10130000292000F082F9062000F06AF90D2000F093
:101310007CF9122000F079F9302000F076F92020D5
:1013200000F073F9192000F070F92A2000F06DF92F
:10133000222000F06AF9502000F052F9372000F026
:1013400064F9612000F04CF9002000F05EF9C8203B
:1013500000F05BF9002000F058F9C82000F055F9C2
:10136000E92000F03DF9012000F04FF9302000F0B5
:1013700037F9082000F049F9042000F031F9FFF7AF
:101380002CFFE02000F02CF9022000F03EF9E620CE
:1013900000F026F95D2000F038F9A52000F020F9D2
:1013A000002000F032F9FFF718FF10BD10B5022041
:1013B00000F016F9002000F028F9FFF70EFF0720D3
:1013C00000F00EF9A52000F020F910BD10B5122094
:1013D00000F006F9002000F018F9FFF7FEFE10BD3E
:1013E00010B5102000F0FCF8002403E0002000F00D
:1013F0000CF9641C42F210708442F7D3FFF7E6FF49
:1014000010BD10B5102000F0EBF8002403E05520CB
:1014100000F0FBF8641C42F210708442F7D3FFF72F
:10142000D5FF10BD10B5102000F0DAF8002403E05D
:10143000AA2000F0EAF8641C42F210708442F7D34C
:10144000FFF7C4FF10BD10B5102000F0C9F800244C
:1014500003E0FF2000F0D9F8641C42F210708442CF
:10146000F7D3FFF7B3FF10BD024632B1012A06D011
:10147000022A06D0032A08D105E0012106E0022154
:1014800004E0032102E0002100E000BF00BFC8B279
:1014900070472DE9F84F0746102000F0A1F800250D
:1014A0002DE0002628E0C820684306EB90003C5C55
:1014B000A009FFF7D9FF80074FEA1068C4F30110B5
:1014C000FFF7D2FF00074FEA1069C4F38100FFF76E
:1014D000CBFF80064FEA106A04F00300FFF7C4FF59
:1014E000834648EA090040EA0A0040EA0B000090FF
:1014F000009800F08AF8761C322ED4D36D1CC82DCB
:10150000CFD3FFF763FFBDE8F88F0000001801405C
:1015100008B501216020FFF7E7FB4FF4E060ADF86C
:10152000000010208DF8030002208DF802006946AB
:101530004048FFF723F94FF44040ADF80000102079
:101540008DF8030002208DF8020069463A48FFF743
:1015500015F94FF40050ADF8000048208DF8030055
:1015600002208DF8020069463348FFF707F94FF46F
:101570008050ADF8000010208DF8030002208DF897
:10158000020069462C48FFF7F9F808BD00BF0100CA
:10159000A0F10102D0B2FAD1704770B5044600251F
:1015A0001BE04FF400712348FFF795F914F0800F0A
:1015B00005D04FF480611F48FFF78BF904E04FF42A
:1015C00080611C48FFF787F96006040E4FF4007134
:1015D0001848FFF77EF9681CC5B2082DE1DB70BD25
:1015E00010B504464FF480711248FFF774F94FF4B8
:1015F00000411148FFF76FF92046FFF7CEFF4FF487
:1016000080710C48FFF765F910BD10B504464FF422
:1016100080710848FFF75FF94FF400410648FFF773
:1016200058F92046FFF7B9FF4FF480710148FFF7E2
:1016300050F910BD0014014000180140064C074D40
:1016400006E0E06840F0010394E807009847103492
:10165000AC42F6D3FEF770FD903D0008B03D0008A7
:1016600002E008C8121F08C1002AFAD1704770476B
:10167000002001E001C1121F002AFBD170470000C9
:10168000000000000000000000000000000000005A
:10169000000000000000000000000000000000004A
:1016A000000000000000000000000000000000003A
:1016B000000000000000000000000000000000002A
:1016C000000000000000000000000000000000001A
:1016D000000000000000000000000000000000000A
:1016E00000000000000000000000000000000000FA
:1016F00000000000000000000000000000000000EA
:1017000000000000000000000000000000000000D9
:1017100000000000000000000000000000000000C9
:1017200000000000000000000000000000000000B9
:1017300000000000000000000000000000000000A9
:101740000000000000000000000000000000000099
:101750000000000000000000000000000000000089
:101760000000000000000000000000000000000079
:101770000000000000000000000000000000000069
:101780000000000000000000000000000000000059
:101790000000000000000000000000000000000049
:1017A0000000000000000000000000000000000039
:1017B0000000000000000000000000000000000029
:1017C0000000000000000000000000000000000019
:1017D0000000000000000000000000000000000009
:1017E0000000000003C00000000000000000000036
:1017F00000000000000000000000000000000000E9
:1018000000000000000000000000000000000000D8
:101810000000000FF0000FC00000000000000000FA
:1018200000000000000000000000000000000000B8
:1018300000000000000000000000000000000000A8
:101840000000000000FFFC003FC00000000000009E
:101850000000000000000000000000000000000088
:101860000000000000000000000000000000000078
:1018700000000000000003FFFF00FF000000000068
:101880000000000000000000000000000000000058
:101890000000000000000000000000000000000048
:1018A000000000000000000003FC0FC3FC0000006B
:1018B0000000000000000000000000000000000028
:1018C00000000000000000000000005079144000FB
:1018D00001C000000000000000000FF003C3F00092
:1018E000003F0300000000000000000000000000B6
:1018F0000000000000000000000000000681A8BAFF
:10190000C4000BC000000000000000003FC003FF47
:10191000F00000F0CC00000000000000000000001B
:101920000000000000000000000000000000045B58
:10193000A41981000E3000000000000000003F00EC
:1019400000FFC00000C0F000000000000000000028
:101950000000000000000000000000000000000087
:10196000006A6EABBAE00DF8000000000000000055
:101970003F0000FF000000C0C000000000000000A9
:1019800000000002BAE400000000000000000000B7
:10199000000005160A76599E732C00000000000016
:1019A0000000FC0000FF000000FFFF00000000003E
:1019B000000000000BFFEFBE400000000000000030
:1019C0000000F80000260B99ADA5B8FC000000004F
:1019D00000000000FC0000FF00000000000000000C
:1019E000000000000002BAAAB6BBB0000000000070
:1019F00000000AFBFC01011429AB9A5BAB2F00002D
:101A0000000000000000FC0000FC000000000000DE
:101A1000000000000000001FAEDFABA69300000036
:101A200002700000FFBC630D0049A6D976E556FFA1
:101A30000000000000000000FC0000FC000000C3EB
:101A4000030000000000000001AAB6AA7B9EE0008F
:101A5000000001100003FFEECEB5D401666EA99A16
:101A6000AEFF4000000000000000FFFFFFFFFFC0CE
:101A700000C303000000000000000AEB6BBEE6F9A3
:101A8000A0400FF00E70002FFD3FB37BFF6055A606
:101A90009AB655BFC000000000000000FFFFFFFF26
:101AA000FFC000C303000000000000004799B99A7E
:101AB000BE9AF000FFFC150800F7FEFF98FDDF7DE1
:101AC0001A90E469BAAFC0000000000000003FFFB8
:101AD000FFFFFFC000C3030000000000000199AB3E
:101AE0009AEE69EE6473FEED80D40081FDFEFD2F59
:101AF000BF4605656C1D95BFC000000000000000DA
:101B000000000000000000C3030000000000001BF4
:101B1000AA76AEBBEEA6EC0FFDBEFC1C01097FFF52
:101B20006FCECB0E469BAA6A6A6BC0000000000015
:101B3000000000000000000000FFFF0000000000A7
:101B400000AA599A7666BADE9BEFFF8FFF340279BE
:101B5000DFFEBBEDFB074969669765EFF00000000B
:101B60000000000000000000000000000000000075
:101B700000000199A6A9AADE67A9EF7FFDF83F3909
:101B8000C0E7EFFEEDBC1FC1C696B9699A7BF000B5
:101B90000000000000003C00000000000000F00019
:101BA0000000000006A65B6799AAEE6EA52FFA8FCB
:101BB000DF4740AD7FFFFAFB87F1D1695AE6B5AB4D
:101BC000F0000000000000003C00FC000F000030AE
:101BD000CC00000000000930A59A6A9EBAE79C7FFD
:101BE000F5EBEF541CFDDFFF4DAEFBF87196A659E7
:101BF0005A5EF000000000000000FC00FC000FC076
:101C000000C0C3000000000068619A6655A667B96D
:101C1000AFBFF8A7CE95DD577FFFEA7FFFFC756960
:101C20006DAEA6BBF000000000000000FC00FC0050
:101C30000FC000C0C3000000000068266599AE7A9E
:101C4000EA6BAE7FFBDDAFD511DDD7FFFFF99BFF60
:101C5000605696555D6BF400000000000000FC002B
:101C6000FC000FC000C0C3000000000125699A6697
:101C700066A676E65DFFEDBBFBBD7775DDFFF9AFD0
:101C80008A7F5C996AAAA69AF8000000000000000A
:101C9000FC00FC000FC0003C03000000000A659639
:101CA0005599995AAB6EEDFFEFECFFBD557FF7F7F5
:101CB000EEBDE3FFD46695D5996BFC0000000000F3
:101CC0000000FC00FC000FC00003FC000000001935
:101CD000966569999AA65AA66FFFDBFBFFEF000194
:101CE000D042FB6E7FFFF0566A6B66DABC000000E4
:101CF00000000000FC003F000FC0000000000000DA
:101D00000004695A9664A55EA59B9F7FFEDEBCF722
:101D1000F4040075FA7BB9AFB06595999967FC003A
:101D2000000000000000FC003F000FC000000000A9
:101D30000000024956955990D01B4EBA6D9FFEFF88
:101D40007BFFFF000000FF93BBFFF85A6A66A79A6B
:101D5000BC00000000000000FC003F000FC0003F7E
:101D60000300000001166559A59666A42BA9EB9FF8
:101D7000F9B8EFBFBFEF5FE75FEE466FE71556E9D3
:101D8000596BBC00000000000000FC003F000FC0C9
:101D900000F0CC00000000A026665665907AA60EE2
:101DA000AFDBFEBEDFFFAFFF57FB0FF9EFBFFE4219
:101DB000A019EA96BC00000000000000FC003F00F3
:101DC0000FC000C0F00000000152159599529825EF
:101DD0001D1B5F957E6EEFBFFEAAD1590FE68BBF2C
:101DE000FC416819956BBC000000000000003FFF3B
:101DF000FFFFFFC000C0C000000019942659658590
:101E000029640B6A0FA55BDFBBBEBBEEF5FF4FF984
:101E1000FEE7FC5292A66AD9BC0000000000000058
:101E2000FFFFFFFFFF0000FFFF000000466965990C
:101E30008298A599A69B4FD557F7DCFFFBBB91D79E
:101E400057FE3BFBFB56519A966AFC0000000000CF
:101E50000000FFFFFFFFFC00000000000000094938
:101E60001909555643A069BA9FA555BBBEFFAEAA36
:101E7000B7DDC3EDE7FBFF5961B179B6BC000000E7
:101E80000000000000000000000000FFF000000063
:101E900055842614A6690A5656926F95555FA9FE79
:101EA000EEFED15751FBE6BFFE559990999BBC00C1
:101EB00000000000000000000000000000000F0013
:101EC0000000899955649555A5680E039FA556563F
:101ED000FFFFFFDDADDDD1B9FF6FFE5566666666BB
:101EE000AC00000000000000000000000000000046
:101EF000030000004909989866665A95695AAB65CF
:101F000055657BEEF6FFB55D507FBFBAFF19599A54
:101F10006667BC0000000000000000003C000000FC
:101F2000000003000005980954895555656986A984
:101F3000579955555BFFFFF97F77547BEFF7FF8685
:101F40006599D99AAC0000000000000000003FF045
:101F50000000000003000008492565099999509682
:101F600041D6A7A51565556A67FFBD57546EDEBB00
:101F7000FED556666675EC000000000000000FC03C
:101F80003FFF000000000F0000048526555548243F
:101F9000A083A699619D55556655A6FB7DDF756D9D
:101FA000EFFBFF866965999AAC0000000000000015
:101FB0003FC03FFFC00000FFFC0000194955699970
:101FC0001820965A5416B59B4559956599BFBD5D25
:101FD00075A7BFBE7E89019A6666EC00000000000E
:101FE00000003F003F3FF000000000000019119981
:101FF000059425556595A01A6B5A9415515665FFA1
:10200000AD5FD5EEFB45FFD506659999AD000000A3
:10201000000000003F003F03FC00003C3C0000616A
:10202000026099255599409959642C3FD55595558D
:1020300066FFFDFD75DA5EF0FEE6665A7666BE0066
:10204000000000000000FC003F00FF0000C3C300D0
:10205000001241515425994290A6669924AAA5558B
:1020600059995BEFA57755A6ABB9FFA555A5999DE5
:10207000AF00000000000000FC003F003F0000C077
:10208000C30000916590286556066655555964FB56
:10209000A6596555AFFDDDD551D577BFFEB5995928
:1020A000A666EF00000000000000FC003F000FC02B
:1020B00000C0C30000495564659545655542A2823C
:1020C000B4A6595599956FFBADDE55E599B6FFF16C
:1020D000569A5999AF00000000000000FF003FC071
:1020E0000FC000FFFF000006624955566509668172
:1020F0008295A0EE556555596FBF9DD551E666EEA8
:10210000FEB9696566666F000000000000003F00D0
:102110000FC00FC000000000009542099995190AF0
:102120005559426ABD64125599957F76ED5D56F515
:10213000557BFFAD559699D9BB000000000000000B
:102140003FC00FC00FC00000000000664615555983
:1021500025542829996669A4115966667DFFB4D56E
:10216000DEF99A7BFFAD696966666B0000000000CE
:1021700000000FFC0FC00FC00000000000554565B7
:1021800099452524246556956ED8099555557ED6D2
:10219000A5D95AF555A6FFBD56969999DF000000BE
:1021A0000000000003FF00000FC000000000001945
:1021B0001944559482555666995A64A4165599A5A2
:1021C000BFBFB1D55DBAD5BFFFBD65595666AB007F
:1021D00000000000000000FFF0003F0000000000D1
:1021E000002425599515421A595566657864195980
:1021F0005555FDDAB4DD5AA565B9FFAD59A5A99DC0
:102200006F00000000000000000FFFFFFF00000053
:1022100000000014624449424425A6A665026DB040
:102220001965A66BFBFFA4D55D5645F5FFBE655A43
:102230005666BB000000000000000000FFFFFC002D
:1022400000C0000001951255554964515559590572
:102250006C906951557FFFDAF4765D656EFFFBEA9D
:10226000169581999B0000000000000000000FFF00
:10227000C000003C000001590211846095829996CB
:1022800096A67A81A59599AFFEFEA9355E9A56EE7F
:10229000FFBE196AC2666F00000000000000000067
:1022A000000000000003C0000244154856104142DF
:1022B00056595655A641956565BBFF7AED155A6589
:1022C00055FFBBEE14056599EB000000000000000F
:1022D0000000000003C00000FC000144A14541557E
:1022E0008A456565A5697E469956567BFBFBB40F0A
:1022F0005D5655E9FFEF1956A6666700000000001D
:102300000000000FF0000FC0000F030006605191A5
:102310009521051256465655AE1695A41967FFEA43
:10232000A6095D559BEEFEEE16996599AF0000007B
:102330000000000000FFFC003FC000300000001162
:10234000644212511851594299827C06D554656FE6
:10235000FFEEE54D0E5057FAFFEF056666665B002F
:1023600000000000000003FFFF00FF0000C00000AD
:102370000409118214151824A5995581AC07A66586
:102380005A7BDFEAAD494A5457F7FBEB569999D986
:10239000AB0000000000000003FC0FC3FC000000C5
:1023A000000004652194515824202655995A7C0632
:1023B0005558656FFFAEE5054B5456FBFFEF855949
:1023C00066667B000000000000000FF003C3F00011
:1023D0000000F000065152410210542095645665E9
:1023E0006806599455BFFDEBB9034E5966EEFBEBF9
:1023F00086969999A7000000000000003FC003FFE7
:10240000F0000030CC00051881164246145569567C
:102410006556A401A9559A7FEFBAA502575555FFF5
:10242000F7EF866666669B000000000000003F0034
:1024300000FFC00000C0C300025049414441424473
:1024400016650995544052A965AFFDAEED01569948
:1024500096E9EFEB859267656B00000000000000D5
:102460003F0000FF000000C0C30005650454654242
:10247000424865540666AC400659567EFFFAA902EA
:10248000575965FFFFEF4642599AB7000000000018
:102490000000FC0000FF000000C0C3000042024832
:1024A0004252460650A59A515AAAA51A65AFFFABEB
:1024B000B503565556EAE7BB9591A6656A0000003C
:1024C00000000000FC0000FF0000003C03000601CB
:1024D00052495144154640966419AFB980AA56FB3B
:1024E000FFEEA901579596DEF7EB466A669AA700BC
:1024F000000000000000FC0000FC00000003FC00E5
:1025000001591204121850A5664050267EA82806CC
:102510009BFBFFAAED0246D556EEFFEE1555597509
:102520006E00000000000000FC0000FC0000000045
:10253000000000240255254150141540A4656E7A10
:102540009099AFFEFFBEB90357D957F1FBAF599A27
:10255000999A9B00000000000000FFFFFFFFFFC0F2
:10256000003F0300045089092454486529694A52F0
:102570006EAA8822B6BFFFABABB151D65BB6FFEBFC
:10258000156565A57A00000000000000FFFFFFFF51
:10259000FFC000F0CC00042185452516154619061C
:1025A00041817AC7891879DEFFBAED7ED2955FA2A4
:1025B000FFBE05969A5AA7000000000000003FFFEA
:1025C000FFFFFFC000C0F00006055566519144951D
:1025D000608259826EAA8881FEBFFFAEAAF755D6E7
:1025E0006FF1FFAB565955A55A00000000000000DE
:1025F00000000000000000C0C00001490845424042
:10260000955250A599657EED8266AFFEFFAAED5901
:1026100074A57BBBFFBF0966AA59EB000000000050
:10262000000000000000000000FFFF000195494984
:1026300065409091965656566EB9A099AEFEFFBB76
:10264000ABAD5579BBBEFEAE146555966700000074
:102650000000000000000000000000000000015920
:10266000081155514091954065656FAA611AB67B76
:10267000F7AAB9DD5555BF6FFFFB1866A6699B0029
:10268000000000000000000000000000000000004A
:1026900001654820996502925961A6597FBE98AAA2
:1026A000D97EFFEEEBF651155FEFFEAE146659963C
:1026B0007A0000000000000000000000000000C3DD
:1026C00003000019615065555515525955996EAA68
:1026D000185AA69BFBAAAB7950585BEFFFFB5995A4
:1026E00099659B00000000000000FFFFFF00000054
:1026F00000C30300005510925599665942959906FA
:102700006FEE825B555AFFEEEFDD556507AFFEAE0B
:102710001666569A6E00000000000000FFFFFFFFE3
:10272000000000C303000069249559565555914295
:102730009601B6AEA6AE5997FBAAABED16E652FAD5
:10274000FEFF959965556A000000000000003FFFFC
:10275000FFFFF00000C30300005515599655599628
:102760005981625A7BEA55A96657FFEEED550E5521
:10277000517BFEEB965599999E00000000000000E9
:10278000000000FFFC0000C3030000192595555907
:102790006565555A60640EAF8AB65567FBAAA917DE
:1027A0004A99807FEFBE165A56667A0000000000F4
:1027B000000000000003FF0000FFFF00000525559A
:1027C00099955555999564A55EE69B956657FFAE1C
:1027D000ED155B66407AFEEE55A46955AD0000002C
:1027E00000000000000000003F0000000000001991
:1027F000559655659666550995664ABA6A55555B6C
:10280000FBEAB8354659506FFEFF965015A6780082
:10281000000000000000000000000FC000FFFF00EB
:10282000000590945955655556425A562EEBB955A8
:10283000995AFFAEAD7E6EAE941BFAEE559599593E
:10284000AC00000000000000000000000FC000000D
:102850000C000018109496595599656565996E9904
:10286000A555565BFBAAE97AFA565957FFBED669B9
:1028700055959C00000000000000000000000FC003
:10288000000030000015255825559665569656656A
:102890006DAAD555955BFFEEB97EA6E4216BFAFED5
:1028A000595666667C000000000000000000000031
:1028B0000FC00000C000001991955596655655420D
:1028C00065566EBB56565666F9AA9BEB5A54556F21
:1028D000FBB965955555A8000000000000000000F8
:1028E00000000FC000030000001541589565559584
:1028F000660959A57AAA55555556FBEBAFBAA409F6
:1029000059FFFEFE1666666A7C00000000000000AB
:10291000000000003FC0000C0000001992549256C5
:10292000666655599659BB9565656665F9EAABAD1E
:10293000D596A6FBFBBE59555555A40000000000D6
:10294000000000000000FF00003000000004596596
:10295000509555555655590976EF95555556FFEBF7
:102960009BEAA91E6FAFFBFD1599866674000000F7
:10297000000000000000000FFF0000FFFF0000004B
:10298000955209598659A569942563FFD9565996D8
:10299000F9EAABB66D69BE2FFBB8595565156400F1
:1029A000000000000000FFFFFFFFFC00000000002F
:1029B00000025660495642255655996547FBE55534
:1029C0005556FBEB67E9DA97FFEFFFE45599559908
:1029D000B000000000000000FFFFFFFFC00000C3C8
:1029E0000300000165549565421999996655B87BB5
:1029F00099556596FBEAABEDBA7FFFBFEBE06650F9
:102A0000996560000000000000003FFFFFFC00002F
:102A100000C3030000001609645095091956559922
:102A200040B676595556FFBAB7EAA9FFE8EFFFF06E
:102A300055655155B0000000000000000000000086
:102A4000000000C3030000001949542426640A69E9
:102A5000AA56B6E765555655FB6BA7E6FBEEF6FFA3
:102A6000EEF05956596260000000000000000000BE
:102A70000000000000C30300000015959265595640
:102A8000555555654F66B5559555FEEAABEBA7FF15
:102A9000BFBFFFF1659056157000000000000000F8
:102AA00000000000000000C3030000000255925423
:102AB000959966669A96529559555959BEDEE7FB27
:102AC000579B6B7FEFE154405158700000000000AD
:102AD000000000000000000000FFFF000000016691
:102AE00062096555955955657BDAA5555555BAEA7C
:102AF000ABBA67FFBDFFFF9195959505B00000004B
:102B0000000000000000000FF000000000000000C6
:102B100006555582559959A5999987A5595659959C
:102B2000FF7AE95D55BBFEFFFDC158665651B00006
:102B300000000000000000FFC03FFC00000000009B
:102B40000000052666519965A6519665DEF6755515
:102B50005555FA7AAB7A9BE7BBFFF64556551041BF
:102B6000B00000000000000003FFF03FFF00000085
:102B700000000000001155665655559195596B950A
:102B800099555996FEDBAB697FA5DEBF5F45955928
:102B90004951F0000000000000000FFFFCFCFF00A6
:102BA0000000000000000041995565999966A681D2
:102BB00056A655559557BA7AAB757FFEAFFDBF4502
:102BC00049945105F0000000000000003FC0FFF0F4
:102BD0003FC00000000000000060466654196659BE
:102BE0005950B379A9955A66F9DAEB5E6FBFFBF7D6
:102BF000FF4654464495E0000000000000003F00FE
:102C00003FF00FC0000000000000001485550A09C5
:102C1000556596AA5697555555566DBBAB959697E3
:102C2000FBFFF91555651511F000000000000000CC
:102C3000FC003FC00FC0003F030000000000599A95
:102C40004A599A5659416ED96A559656FDEAAF5E71
:102C50006665AFFEFB1582514405E00000000000F0
:102C60000000FC000FC003F000F0CC0000000000EA
:102C70000955942595996646542695556566796D4E
:102C8000EF5559E65BFFB91255148456D000000089
:102C900000000000FC000FC003F000C0F0000000C6
:102CA000000059596424196655996C197666555671
:102CB000FDEAA757655556BFB91511611202D0003C
:102CC000000000000000FC000FC003F000C0C000C6
:102CD00000000000109599A66655A0290005995599
:102CE000555A4EAEAD56556665669716191444464C
:102CF000C000000000000000FC000FC003F000FF57
:102D0000FF000000000001A45555959A6696000248
:102D1000599555A7C326F5759A555656E905551187
:102D20000457C000000000000000FFFFFFFFFFF09D
:102D3000000000000000000001592699595559690A
:102D4000000167565557939FD5E9559994565514E8
:102D500011816117F000000000000000FFFFFFFF7D
:102D6000FFF000C30300000000000095955666A622
:102D7000999600005965559983AA55F66665956F31
:102D80003919591613D7FF000000000000003FFF5B
:102D9000FFFFFFC000C30300000000000060982593
:102DA00055565659000026556656400355555555FB
:102DB00056FD9452451147DBCFC0000000000000D3
:102DC00000000000000000C3030000000000000538
:102DD00095099990A5A600001995555900355D5F94
:102DE0005556FFF9E54516041F5BC3C000000000FF
:102DF000000000000000000000C30300000000000D
:102E000000001A5666549A590000026640000015E8
:102E10005777FFBFFF96541451190F5FC0F00000A1
:102E20000000000000000000000000C303000000DC
:102E30000000000004651169659600000050000064
:102E40000005555777D55BDD719649000F6FC0F0CF
:102E500000000000000000000000000000FFFF0074
:102E60000FC0000000000819998652692000000078
:102E70000000000555557577D796254114445FEB42
:102E8000C0F0000000000000000000000000000092
:102E900000003030000000000019556569545000F2
:102EA000000000000001556555555F79542511114A
:102EB00003F7C0F00000000000000000000003F075
:102EC00000C00000C00C00000000000696998519A3
:102ED000800000000000000015555FD5FF952551CA
:102EE000808025FF03F00000000000000000000FBC
:102EF000FFF0003C0000C00C00000000000025595D
:102F00005AA500000000000000000555557DDF5067
:102F100016145511067FFFC00000000000000000DD
:102F2000FFFFFFF00003C000C00C00000000000025
:102F30000006950200000000000000000147555700
:102F4000779455504200581BFF000000000000001D
:102F50003FFFFFFFFC000000FC03000C000000002E
:102F6000000000006A500000000000000000005D4A
:102F7000FD7555D86108100443FFFFF00000000004
:102F80000000FFFFFFF00000000F0303FFFC000044
:102F90000000000000000000000000000000000031
:102FA000000175555761565100583FFFFFF0000072
:102FB00000000000FFFC00000000003000000000E6
:102FC0000000000000000000000000000000000001
:102FD000000000005400015514401900411003C0C6
:102FE0000000000000003FFFF000000000C00000F3
:102FF000FF000000000000000000000000000000D2
:10300000AAA0000000000000005025194000208008
:103010000F0000000000000000FFFFC000000000E3
:10302000000300F00000000000000000000000AA03
:10303000800AAAAA000000000000000000000000B2
:1030400006003C000000000000000000FFFFC00080
:1030500000000003000C0000000000000000000061
:103060000AAAA02AAAAA800000000000000000000E
:1030700000000000F000000000000000000003FF5E
:10308000FF0000003F03000C0000000000000000F3
:1030900000002AAAA82AAAAAA00000000000000096
:1030A000000000000003C00000000000000000005D
:1030B000000FFFC0000FF003000C00000000000034
:1030C000000000002AAAAAAA802AA000000000008E
:1030D000000000000000000F0000000000000000E1
:1030E00000000000FFF000F0C003000C0000000032
:1030F0000000000000002A80AAAA000AA000000028
:103100000000000000000000003C00000000000083
:103110000000000000FFFFF0000FC000F00C0000F6
:103120000000000000000000AA002AA80002A80079
:103130000000000000000000000003F0000000009C
:10314000000000000003FFFFFFC00003C0000FF0FD
:1031500000000000000000000000AA002AA80002F1
:10316000A800000000000000000000000FFFFFF0BA
:103170000000000000000FFFFFFFC00000003C0047
:10318000000000000000000000000000AA000AA0EB
:103190000002A800000000000000000000000FFF77
:1031A000FFF0000000000000FFFFFFC00000000073
:1031B0000300FF0000000000000000000000AA0063
:1031C0000AA00002A80000000000000000000000AB
:1031D00000000000000000000000FFFC00000000F4
:1031E0000000030300F000000000000000000000E9
:1031F000AA000AA00002A8000000000000000000D1
:103200000000000000000000000000003FFFFC0084
:10321000000000000303000C00000000000000009C
:103220000000AA000AA80002A80000000000000098
:10323000000000000000000000000000000003FF8C
:10324000FFFC000000000303000C00000000000071
:1032500000000000AA002AA8000AA8000000000040
:103260000000000000000F0000F00000000000005F
:103270000000FFFFFF0000000303000C000000003F
:103280000000000000002A802AAA000AA80000000E
:1032900000000000000000000F0000F0000000002F
:1032A0000000000000FFFFF000FFFF03000C000023
:1032B00000000000000000002AA0AAAA802AA000A6
:1032C000000000000000000000000F0000F00000FF
:1032D0000000000000000003FFF000000000F00C00
:1032E000000000000000000000000AAAAAAAAAAA82
:1032F000A000000000000000000000000FFFFFF031
:10330000000000000000000000000FF000000000BE
:103310000FF0000000000000000000000AAAAA2A26
:10332000AAAA8000000000000000000000000FFFBB
:10333000FFF000000000000000000000000000009E
:10334000300000000000000000000000000002AAA1
:10335000A80AAAAA00000000000000000000000067
:103360000F0000F00000000000000000000000005E
:10337000000030030000000000000000000000001A
:10338000002AA000AAA80000000000000000000021
:1033900000000F0000F0000000000000000000002E
:1033A0000000000030030C000000000000000000DE
:1033B000000000000000000000000000000000000D
:1033C000000000000F0000F00000000000000000FE
:1033D00000000FC0000030030C00000000000000DF
:1033E00000000000000000000000000000000000DD
:1033F00000000000000000000000000000000000CD
:1034000000000003FFC000C003030C000000000028
:1034100000000000000000000000000000000000AC
:103420000000000000000000000000F000000000AC
:10343000000000000FFFFF0000C003030C000000AD
:10344000000000000000000000000000000000007C
:1034500000000000000000000000000000F000007C
:1034600000000000000FFFFFFC0000FFFF03FFFC57
:10347000000000000000000000000000000000004C
:103480000A00000000000F0000000000000000F033
:103490000000000000003FFFFFFC000000C0030030
:1034A000000000000000000000000000000000001C
:1034B00000002A80000000000F0000000000000053
:1034C00000F0000000000000FFFFF3F0000000C06B
:1034D00003000000000000000000000000000000E9
:1034E000000000002A80000000000F000000000023
:1034F000000000F00000000000003FC003F00000EA
:1035000000000000000000000000000000000000BB
:103510000000000000002A80000000000F000000F2
:1035200000000FFFFFF00000000000000FFC03F0A0
:10353000000000C0000000000000000000000000CB
:1035400000000000000000000A00000000000F0062
:10355000000000000FFFFFF000000000000000FF6F
:10356000C3F0000000C000030000000000000000E5
:10357000000000000000000000000000000000004B
:103580000FFFFFF00000000000000000000000003E
:10359000003FFCFC000000C0000300000000000031
:1035A000000000000000000000000000000000001B
:1035B00000000FFFFFF0000000000000000000000E
:1035C00000000003FFFC000000FFFF0300000000FC
:1035D00000000000000000000000000000000000EB
:1035E000000000000F0000000000000000F00000DC
:1035F0000000000000003FFC000000C00003FFFCD2
:1036000000000000000000000000000000000000BA
:103610000000000000000F0000000000000000F0AB
:10362000000000000000000003FFC00000C0000315
:10363000000000000000000000000000000000008A
:1036400000000000000000000F000000000000006B
:1036500000F00000000000000000003FFC0000C07F
:103660000003000000000000000000000000000057
:10367000000000000000000000000F00000000003B
:10368000000000F00000000000000000003FFF000C
:103690000000000300000000000000000000000027
:1036A00000AA80000002A0000000000000FFF0005F
:1036B0000000000000F0000000000000000000001A
:1036C000FFC0000003000000000000000000000038
:1036D00000000AAAA8000002A8000000000003FFE2
:1036E000FC0000000FFFFFF00000000000000000E1
:1036F00000000FC0000003000000000000000000F8
:10370000000000000AAAAA00000AA80000000000A9
:103710000FC03FC000000FFFFFF0000000000000DE
:103720000000000000000000030303F000000000A0
:103730000000000000002AAAAA80000AA0000000E1
:1037400000000F0003C000000000000000000000A7
:103750000000000000000000000003030C0C00004B
:1037600000000000000000002AA02AA0000AA0001B
:10377000000000000F0000F000000000000000004A
:103780000000000000000000000000FFFF030C0C20
:1037900000000000000000000000AA800AA0000A4B
:1037A000A000000000000F0000F000000F0000006B
:1037B0000000000000000000000000000000000306
:1037C0000C0C00000000000000000000AA0002A88D
:1037D000000AA000000000000F0000F000000F032E
:1037E000C0F0000000000000FFFFFFFFFFC000006E
:1037F0000000CC0C00000000000000000000AA0047
:1038000000AA000AA000000000000FC000F00000A5
:103810000F03C0F0000000000000FFFFFFFFFFC02B
:1038200000FFF000F00C00000000000000000000AD
:10383000AA00002A000AA0000000000003C003F054
:1038400000000F03C0F00000000000003FFFFFFF7A
:10385000FFC000000F00003000000000000000006A
:103860000000AA00002A800AA0000000000000FC5E
:1038700003C000000F03C0F00000000000000000C3
:103880003F000000000003000000000000000000F6
:1038900000000000AA80000AA002A00000000000B2
:1038A000003FFFC000000F03C0F000000000000058
:1038B00000003F00000000000300000000000000C6
:1038C0000000000000002A800002A802A8000000FA
:1038D0000000000FFC0000000F03C0F0000000001B
:1038E000000000003F0000000000030000FC00009A
:1038F00000000000000000002AA00000AA02A800AA
:10390000000000000000000000000FFFFFF00000BA
:103910000000000000003F00000000000F003FC05A
:10392000000000000000000000000AA80000AAAA91
:10393000A800000000000000000000000FFFFFC012
:1039400000000000000000003F00000000FFFC033A
:10395000C3000000000000000000000002AA0000F8
:103960002AAAA800000000000FFFFFF000000000DE
:10397000000000000000000000000F000000000038
:1039800000003F000000000000000000000000AA4E
:1039900000000AAAA800000000000FFFFFF00000CE
:1039A0000000FF0000000000000000000FC0000049
:1039B000000000000F0000000000000000000000F8
:1039C000002A000000AAA000000000000003C000C0
:1039D00000000303FFC000000000000000000FC053
:1039E000000000000F0000F0000000000000000ACE
:1039F000A80000000000000000000000000000031C
:103A0000C00000000F0FC3C0000000000000000055
:103A10000FC000000003FC00000C000000000002CA
:103A2000802AAA0000000000000000000000000042
:103A30000003C00000000F0F00F0000000000000B5
:103A400000000FC0000000FC0003000000000000A8
:103A5000000A80AAAA800000000000000000000008
:103A600000000003C00000000F0F00F00000000085
:103A7000000000000FC000000003FC030C00000069
:103A80000000000A80AA2A80000000000000000058
:103A9000000000000000F00000000F0F00F0000028
:103AA0000000000000000FC0000000000F030C0029
:103AB0000000000000AAAAAAAAAA000000000000B4
:103AC0000000000000000000F000000003CF00F044
:103AD000000000000000000003F000000003FC03F1
:103AE0000C000000000000AAAAAAAAAA0000000078
:103AF00000000000000000000000F000000003FFD4
:103B000003F0000000000000FFFFFFFFFFC000FC0B
:103B100000030C000000000000AAAAAAAAAA000044
:103B2000000000000000000000000FFFFFF0000098
:103B300000FC0FC0000000000000FFFFFFFFFFC0FF
:103B40000003F003FFFC00000000000AA2A80A80A6
:103B50000000000000000000000000000FFFFFF068
:103B6000000000000F00000000000000FFFFFFFF4A
:103B7000FFC000000F000000000000000002AAA823
:103B80002A8000000000000000000000000000008B
:103B90000000000000000000000000000000000025
:103BA0000000000000000000000000000000000213
:103BB000AAA02A8000000000000000000000000011
:103BC00000000000000000000000000000000000F5
:103BD00000000000000000000000000000000000E5
:103BE00000002A802A000000000000000000000001
:103BF00000000000000000000000000000000000C5
:103C000000000000000000000000000000000000B4
:103C100000000000000000000000000000000000A4
:103C20000000000000000000000000000000000094
:103C30000000000000000000000000000000000084
:103C40000000000000000000000000000000000074
:103C50000000000000000000000000000000000064
:103C60000000000000000000000000000000000054
:103C70000000000000000000000000000000000044
:103C80000000000000000000000000000000000034
:103C90000000000000000000000000000000000024
:103CA0000000000000000000000000000000000014
:103CB0000000000000000000000000000000000004
:103CC00000000000000000000000000000000000F4
:103CD00000000000000000000000000000000000E4
:103CE00000000000000000000000000000000000D4
:103CF00000000000000000000000000000000000C4
:103D000000000000000000000000000000000000B3
:103D100000000000000000000000000000000000A3
:103D20000000000000000000000000000000000093
:103D30000000000000000000000000000000000083
:103D40000000000000000000000000000000000073
:103D50000000000000000000000000000000000063
:103D60000000000000000000000000000000000053
:103D70000000000000000000000000000000000043
:103D80000000000000000000000000000000000033
:103D9000B03D00080000002034000000601600085C
:103DA000E43D000834000020CC0400007016000838
:103DB00000A24A0400000000000000000102030409
:103DC00006070809000000000000000000000000D5
:103DD00000000000010203040102030406070809B1
:043DE00002040608CB
:0400000508000131BD
:00000001FF
